{
  "_format": "hh-sol-artifact-1",
  "contractName": "MerchantFactory",
  "sourceName": "contracts/MerchantFactory.sol",
  "abi": [
    {
      "inputs": [
        {
          "internalType": "address",
          "name": "owner",
          "type": "address"
        }
      ],
      "stateMutability": "nonpayable",
      "type": "constructor"
    },
    {
      "anonymous": false,
      "inputs": [
        {
          "indexed": false,
          "internalType": "address",
          "name": "merchantUserWallet",
          "type": "address"
        },
        {
          "indexed": false,
          "internalType": "address",
          "name": "merchantContractAddress",
          "type": "address"
        }
      ],
      "name": "CreateMerchant",
      "type": "event"
    },
    {
      "anonymous": false,
      "inputs": [
        {
          "indexed": true,
          "internalType": "address",
          "name": "previousOwner",
          "type": "address"
        },
        {
          "indexed": true,
          "internalType": "address",
          "name": "newOwner",
          "type": "address"
        }
      ],
      "name": "OwnershipTransferred",
      "type": "event"
    },
    {
      "inputs": [
        {
          "internalType": "address[]",
          "name": "_merchantUserWalletList",
          "type": "address[]"
        },
        {
          "internalType": "address",
          "name": "_receiver_wallet",
          "type": "address"
        },
        {
          "internalType": "address",
          "name": "_asset_address",
          "type": "address"
        },
        {
          "internalType": "uint256[]",
          "name": "_amountList",
          "type": "uint256[]"
        }
      ],
      "name": "claim",
      "outputs": [],
      "stateMutability": "payable",
      "type": "function"
    },
    {
      "inputs": [
        {
          "internalType": "address",
          "name": "_merchantUserWallet",
          "type": "address"
        }
      ],
      "name": "createNewMerchant",
      "outputs": [
        {
          "internalType": "address",
          "name": "",
          "type": "address"
        }
      ],
      "stateMutability": "nonpayable",
      "type": "function"
    },
    {
      "inputs": [
        {
          "internalType": "address",
          "name": "",
          "type": "address"
        }
      ],
      "name": "merchantPair",
      "outputs": [
        {
          "internalType": "address",
          "name": "",
          "type": "address"
        }
      ],
      "stateMutability": "view",
      "type": "function"
    },
    {
      "inputs": [
        {
          "internalType": "address",
          "name": "",
          "type": "address"
        }
      ],
      "name": "operators",
      "outputs": [
        {
          "internalType": "bool",
          "name": "",
          "type": "bool"
        }
      ],
      "stateMutability": "view",
      "type": "function"
    },
    {
      "inputs": [],
      "name": "owner",
      "outputs": [
        {
          "internalType": "address",
          "name": "",
          "type": "address"
        }
      ],
      "stateMutability": "view",
      "type": "function"
    },
    {
      "inputs": [],
      "name": "renounceOwnership",
      "outputs": [],
      "stateMutability": "nonpayable",
      "type": "function"
    },
    {
      "inputs": [
        {
          "internalType": "address",
          "name": "_operator",
          "type": "address"
        },
        {
          "internalType": "bool",
          "name": "_status",
          "type": "bool"
        }
      ],
      "name": "setOperater",
      "outputs": [],
      "stateMutability": "nonpayable",
      "type": "function"
    },
    {
      "inputs": [
        {
          "internalType": "address",
          "name": "newOwner",
          "type": "address"
        }
      ],
      "name": "transferOwnership",
      "outputs": [],
      "stateMutability": "nonpayable",
      "type": "function"
    },
    {
      "inputs": [
        {
          "internalType": "address",
          "name": "_merchantUserWallet",
          "type": "address"
        },
        {
          "internalType": "address",
          "name": "_assetAddress",
          "type": "address"
        },
        {
          "internalType": "uint256",
          "name": "_amount",
          "type": "uint256"
        }
      ],
      "name": "withdraw",
      "outputs": [],
      "stateMutability": "payable",
      "type": "function"
    }
  ],
  "bytecode": "0x608060405234801561001057600080fd5b5060405161134d38038061134d83398101604081905261002f91610171565b61003833610047565b61004181610097565b506101a1565b600080546001600160a01b038381166001600160a01b0319831681178455604051919092169283917f8be0079c531659141344cd1fd0a4f28419497f9722a3daafe3b4186f6b6457e09190a35050565b61009f610115565b6001600160a01b0381166101095760405162461bcd60e51b815260206004820152602660248201527f4f776e61626c653a206e6577206f776e657220697320746865207a65726f206160448201526564647265737360d01b60648201526084015b60405180910390fd5b61011281610047565b50565b6000546001600160a01b0316331461016f5760405162461bcd60e51b815260206004820181905260248201527f4f776e61626c653a2063616c6c6572206973206e6f7420746865206f776e65726044820152606401610100565b565b60006020828403121561018357600080fd5b81516001600160a01b038116811461019a57600080fd5b9392505050565b61119d806101b06000396000f3fe6080604052600436106100865760003560e01c80638da5cb5b116100595780638da5cb5b14610148578063c53a665f14610166578063d9caed1214610186578063e44f457714610199578063f2fde38b146101b957600080fd5b80630b6686a51461008b57806313e7c9d8146100a05780631976c78e146100e5578063715018a614610133575b600080fd5b61009e61009936600461071c565b6101d9565b005b3480156100ac57600080fd5b506100d06100bb366004610800565b60026020526000908152604090205460ff1681565b60405190151581526020015b60405180910390f35b3480156100f157600080fd5b5061011b610100366004610800565b6001602052600090815260409020546001600160a01b031681565b6040516001600160a01b0390911681526020016100dc565b34801561013f57600080fd5b5061009e61032c565b34801561015457600080fd5b506000546001600160a01b031661011b565b34801561017257600080fd5b5061009e610181366004610822565b610340565b61009e61019436600461085e565b610373565b3480156101a557600080fd5b5061011b6101b4366004610800565b610422565b3480156101c557600080fd5b5061009e6101d4366004610800565b6104ff565b3360009081526002602052604090205460ff166102115760405162461bcd60e51b81526004016102089061089a565b60405180910390fd5b83516000905b8082101561032457600060016000888581518110610237576102376108c4565b60200260200101516001600160a01b03166001600160a01b0316815260200190815260200160002060009054906101000a90046001600160a01b031690506000819050806001600160a01b031663996cba68888888888151811061029d5761029d6108c4565b60209081029190910101516040516001600160e01b031960e086901b1681526001600160a01b0393841660048201529290911660248301526044820152606401600060405180830381600087803b1580156102f757600080fd5b505af115801561030b573d6000803e3d6000fd5b505050505050818061031c906108da565b925050610217565b505050505050565b610334610578565b61033e60006105d2565b565b610348610578565b6001600160a01b03919091166000908152600260205260409020805460ff1916911515919091179055565b3360009081526002602052604090205460ff166103a25760405162461bcd60e51b81526004016102089061089a565b6001600160a01b038381166000908152600160205260409081902054905163f3fef3a360e01b81528483166004820152602481018490529116908190819063f3fef3a390604401600060405180830381600087803b15801561040357600080fd5b505af1158015610417573d6000803e3d6000fd5b505050505050505050565b3360009081526002602052604081205460ff166104515760405162461bcd60e51b81526004016102089061089a565b60008260405161046090610622565b6001600160a01b039091168152602001604051809103906000f08015801561048c573d6000803e3d6000fd5b506001600160a01b0384811660008181526001602090815260409182902080546001600160a01b031916948616948517905581519283528201929092529192507f5acfe49314d6e7ff52213d4fd88c55547d74722b3ed7fd98cdeb2d996df6a2fa910160405180910390a190505b919050565b610507610578565b6001600160a01b03811661056c5760405162461bcd60e51b815260206004820152602660248201527f4f776e61626c653a206e6577206f776e657220697320746865207a65726f206160448201526564647265737360d01b6064820152608401610208565b610575816105d2565b50565b6000546001600160a01b0316331461033e5760405162461bcd60e51b815260206004820181905260248201527f4f776e61626c653a2063616c6c6572206973206e6f7420746865206f776e65726044820152606401610208565b600080546001600160a01b038381166001600160a01b0319831681178455604051919092169283917f8be0079c531659141344cd1fd0a4f28419497f9722a3daafe3b4186f6b6457e09190a35050565b6108668061090283390190565b634e487b7160e01b600052604160045260246000fd5b604051601f8201601f1916810167ffffffffffffffff8111828210171561066e5761066e61062f565b604052919050565b600067ffffffffffffffff8211156106905761069061062f565b5060051b60200190565b80356001600160a01b03811681146104fa57600080fd5b600082601f8301126106c257600080fd5b813560206106d76106d283610676565b610645565b82815260059290921b840181019181810190868411156106f657600080fd5b8286015b8481101561071157803583529183019183016106fa565b509695505050505050565b6000806000806080858703121561073257600080fd5b843567ffffffffffffffff8082111561074a57600080fd5b818701915087601f83011261075e57600080fd5b8135602061076e6106d283610676565b82815260059290921b8401810191818101908b84111561078d57600080fd5b948201945b838610156107b2576107a38661069a565b82529482019490820190610792565b98506107c1905089820161069a565b965050506107d16040880161069a565b935060608701359150808211156107e757600080fd5b506107f4878288016106b1565b91505092959194509250565b60006020828403121561081257600080fd5b61081b8261069a565b9392505050565b6000806040838503121561083557600080fd5b61083e8361069a565b91506020830135801515811461085357600080fd5b809150509250929050565b60008060006060848603121561087357600080fd5b61087c8461069a565b925061088a6020850161069a565b9150604084013590509250925092565b60208082526010908201526f24b73b30b634b21027b832b930ba37b960811b604082015260600190565b634e487b7160e01b600052603260045260246000fd5b6000600182016108fa57634e487b7160e01b600052601160045260246000fd5b506001019056fe608060405234801561001057600080fd5b5060405161086638038061086683398101604081905261002f9161005d565b600180546001600160a01b039092166001600160a01b0319928316179055600080549091163317905561008d565b60006020828403121561006f57600080fd5b81516001600160a01b038116811461008657600080fd5b9392505050565b6107ca8061009c6000396000f3fe60806040526004361061004a5760003560e01c80630a90e1791461004f5780638da5cb5b14610064578063996cba68146100a0578063a5ff7651146100b3578063f3fef3a3146100d3575b600080fd5b61006261005d3660046105a3565b6100e6565b005b34801561007057600080fd5b50600054610084906001600160a01b031681565b6040516001600160a01b03909116815260200160405180910390f35b6100626100ae36600461066e565b6101e0565b3480156100bf57600080fd5b50600154610084906001600160a01b031681565b6100626100e136600461069a565b6103a1565b60006001600160a01b0383161561019a576040516323b872dd60e01b8152336004820152306024820152604481018390526001600160a01b038416906323b872dd906064016020604051808303816000875af115801561014a573d6000803e3d6000fd5b505050506040513d601f19601f8201168201806040525081019061016e91906106c4565b6101935760405162461bcd60e51b815260040161018a906106ed565b60405180910390fd5b508061019d565b50345b7ff438e2c4a3356a8b7d1d49f07f1c48399c11eb019c9fa7343bacc0371dade022338483876040516101d2949392919061071c565b60405180910390a150505050565b6000546001600160a01b0316331461022a5760405162461bcd60e51b815260206004820152600d60248201526c24b73b30b634b21027bbb732b960991b604482015260640161018a565b6001600160a01b038216156102cd5760405163a9059cbb60e01b81526001600160a01b0384811660048301526024820183905283169063a9059cbb906044016020604051808303816000875af1158015610288573d6000803e3d6000fd5b505050506040513d601f19601f820116820180604052508101906102ac91906106c4565b6102c85760405162461bcd60e51b815260040161018a906106ed565b610351565b478111156103195760405162461bcd60e51b81526020600482015260196024820152784d65726368616e74206e6f7420656e6f756768206d6f6e657960381b604482015260640161018a565b6040516001600160a01b0384169082156108fc029083906000818181858888f1935050505015801561034f573d6000803e3d6000fd5b505b604080516001600160a01b038086168252841660208201529081018290527f70eb43c4a8ae8c40502dcf22436c509c28d6ff421cf07c491be56984bd9870689060600160405180910390a1505050565b6000546001600160a01b031633146103eb5760405162461bcd60e51b815260206004820152600d60248201526c24b73b30b634b21027bbb732b960991b604482015260640161018a565b6001600160a01b038216156104925760015460405163a9059cbb60e01b81526001600160a01b039182166004820152602481018390529083169063a9059cbb906044016020604051808303816000875af115801561044d573d6000803e3d6000fd5b505050506040513d601f19601f8201168201806040525081019061047191906106c4565b61048d5760405162461bcd60e51b815260040161018a906106ed565b61051a565b478111156104de5760405162461bcd60e51b81526020600482015260196024820152784d65726368616e74206e6f7420656e6f756768206d6f6e657960381b604482015260640161018a565b6001546040516001600160a01b039091169082156108fc029083906000818181858888f19350505050158015610518573d6000803e3d6000fd5b505b600154604080513081526001600160a01b0392831660208201529184168282015260608201839052517f3115d1449a7b732c986cba18244e897a450f61e1bb8d589cd2e69e6c8924f9f79181900360800190a15050565b634e487b7160e01b600052604160045260246000fd5b80356001600160a01b038116811461059e57600080fd5b919050565b6000806000606084860312156105b857600080fd5b833567ffffffffffffffff808211156105d057600080fd5b818601915086601f8301126105e457600080fd5b8135818111156105f6576105f6610571565b604051601f8201601f19908116603f0116810190838211818310171561061e5761061e610571565b8160405282815289602084870101111561063757600080fd5b82602086016020830137600060208483010152809750505050505061065e60208501610587565b9150604084013590509250925092565b60008060006060848603121561068357600080fd5b61068c84610587565b925061065e60208501610587565b600080604083850312156106ad57600080fd5b6106b683610587565b946020939093013593505050565b6000602082840312156106d657600080fd5b815180151581146106e657600080fd5b9392505050565b602080825260159082015274151bdad95b88151c985b9cd9995c8811985a5b1959605a1b604082015260600190565b600060018060a01b038087168352602081871681850152856040850152608060608501528451915081608085015260005b828110156107695785810182015185820160a00152810161074d565b8281111561077b57600060a084870101525b5050601f01601f19169190910160a0019594505050505056fea264697066735822122058f2d593eb93e28d011f95c413d1404efdbef288499793632c6dd7baea2a824a64736f6c634300080d0033a26469706673582212206f9eddc76bec3329c177b9045d7a0d12d40c82b9f3a46e5756187dcee97d589d64736f6c634300080d0033",
  "linkReferences": {},
  "deployedLinkReferences": {}
}